{
  "_format": "hh-sol-artifact-1",
  "contractName": "CarbonCredit",
  "sourceName": "contracts/CarbonCredit.sol",
  "abi": [
    {
      "inputs": [
        {
          "internalType": "address",
          "name": "_oniToken",
          "type": "address"
        }
      ],
      "stateMutability": "nonpayable",
      "type": "constructor"
    },
    {
      "inputs": [],
      "name": "AlreadyAudited",
      "type": "error"
    },
    {
      "inputs": [],
      "name": "AuditRequestedAlready",
      "type": "error"
    },
    {
      "inputs": [],
      "name": "CreatorCantAudit",
      "type": "error"
    },
    {
      "inputs": [],
      "name": "CreditDoesntExist",
      "type": "error"
    },
    {
      "inputs": [],
      "name": "CreditFailedAudit",
      "type": "error"
    },
    {
      "inputs": [],
      "name": "CreditNotAudited",
      "type": "error"
    },
    {
      "inputs": [],
      "name": "CreditNotForSale",
      "type": "error"
    },
    {
      "inputs": [],
      "name": "FeeTransactionFailed",
      "type": "error"
    },
    {
      "inputs": [],
      "name": "MinAuditFees",
      "type": "error"
    },
    {
      "inputs": [],
      "name": "OnlyCreatorCanExpire",
      "type": "error"
    },
    {
      "inputs": [],
      "name": "OnlyOwnerCanRemove",
      "type": "error"
    },
    {
      "inputs": [],
      "name": "OnlyOwnerCanSell",
      "type": "error"
    },
    {
      "inputs": [],
      "name": "PriceNotMet",
      "type": "error"
    },
    {
      "inputs": [
        {
          "internalType": "uint256",
          "name": "creditId",
          "type": "uint256"
        },
        {
          "internalType": "bool",
          "name": "vote",
          "type": "bool"
        }
      ],
      "name": "auditCredit",
      "outputs": [],
      "stateMutability": "nonpayable",
      "type": "function"
    },
    {
      "inputs": [
        {
          "internalType": "uint256",
          "name": "creditId",
          "type": "uint256"
        }
      ],
      "name": "buyCredit",
      "outputs": [],
      "stateMutability": "nonpayable",
      "type": "function"
    },
    {
      "inputs": [
        {
          "internalType": "uint256",
          "name": "",
          "type": "uint256"
        }
      ],
      "name": "credits",
      "outputs": [
        {
          "internalType": "uint256",
          "name": "amount",
          "type": "uint256"
        },
        {
          "internalType": "address",
          "name": "creator",
          "type": "address"
        },
        {
          "internalType": "address",
          "name": "owner",
          "type": "address"
        },
        {
          "internalType": "bool",
          "name": "expired",
          "type": "bool"
        },
        {
          "internalType": "uint256",
          "name": "price",
          "type": "uint256"
        },
        {
          "internalType": "bool",
          "name": "forSale",
          "type": "bool"
        },
        {
          "internalType": "uint8",
          "name": "requestStatus",
          "type": "uint8"
        },
        {
          "internalType": "uint256",
          "name": "numOfAuditors",
          "type": "uint256"
        },
        {
          "internalType": "uint256",
          "name": "auditFees",
          "type": "uint256"
        },
        {
          "internalType": "int256",
          "name": "auditScore",
          "type": "int256"
        }
      ],
      "stateMutability": "view",
      "type": "function"
    },
    {
      "inputs": [
        {
          "internalType": "uint256",
          "name": "creditId",
          "type": "uint256"
        }
      ],
      "name": "expire",
      "outputs": [],
      "stateMutability": "nonpayable",
      "type": "function"
    },
    {
      "inputs": [
        {
          "internalType": "uint256",
          "name": "amount",
          "type": "uint256"
        },
        {
          "internalType": "uint256",
          "name": "price",
          "type": "uint256"
        }
      ],
      "name": "generateCredit",
      "outputs": [],
      "stateMutability": "nonpayable",
      "type": "function"
    },
    {
      "inputs": [
        {
          "internalType": "uint256",
          "name": "creditId",
          "type": "uint256"
        }
      ],
      "name": "getAuditorList",
      "outputs": [
        {
          "internalType": "address[]",
          "name": "",
          "type": "address[]"
        }
      ],
      "stateMutability": "view",
      "type": "function"
    },
    {
      "inputs": [
        {
          "internalType": "uint256",
          "name": "creditId",
          "type": "uint256"
        },
        {
          "internalType": "address",
          "name": "auditor",
          "type": "address"
        }
      ],
      "name": "getAuditorVote",
      "outputs": [
        {
          "internalType": "bool",
          "name": "",
          "type": "bool"
        }
      ],
      "stateMutability": "view",
      "type": "function"
    },
    {
      "inputs": [],
      "name": "getContractBalance",
      "outputs": [
        {
          "internalType": "uint256",
          "name": "",
          "type": "uint256"
        }
      ],
      "stateMutability": "view",
      "type": "function"
    },
    {
      "inputs": [
        {
          "internalType": "uint256",
          "name": "creditId",
          "type": "uint256"
        }
      ],
      "name": "getCreator",
      "outputs": [
        {
          "internalType": "address",
          "name": "",
          "type": "address"
        }
      ],
      "stateMutability": "view",
      "type": "function"
    },
    {
      "inputs": [],
      "name": "getNextCreditId",
      "outputs": [
        {
          "internalType": "uint256",
          "name": "",
          "type": "uint256"
        }
      ],
      "stateMutability": "view",
      "type": "function"
    },
    {
      "inputs": [
        {
          "internalType": "uint256",
          "name": "creditId",
          "type": "uint256"
        }
      ],
      "name": "getOwner",
      "outputs": [
        {
          "internalType": "address",
          "name": "",
          "type": "address"
        }
      ],
      "stateMutability": "view",
      "type": "function"
    },
    {
      "inputs": [
        {
          "internalType": "uint256",
          "name": "creditId",
          "type": "uint256"
        }
      ],
      "name": "getPrice",
      "outputs": [
        {
          "internalType": "uint256",
          "name": "",
          "type": "uint256"
        }
      ],
      "stateMutability": "view",
      "type": "function"
    },
    {
      "inputs": [
        {
          "internalType": "uint256",
          "name": "creditId",
          "type": "uint256"
        }
      ],
      "name": "isExpired",
      "outputs": [
        {
          "internalType": "bool",
          "name": "",
          "type": "bool"
        }
      ],
      "stateMutability": "view",
      "type": "function"
    },
    {
      "inputs": [],
      "name": "oniToken",
      "outputs": [
        {
          "internalType": "contract IERC20",
          "name": "",
          "type": "address"
        }
      ],
      "stateMutability": "view",
      "type": "function"
    },
    {
      "inputs": [
        {
          "internalType": "uint256",
          "name": "creditId",
          "type": "uint256"
        }
      ],
      "name": "removeFromSale",
      "outputs": [],
      "stateMutability": "nonpayable",
      "type": "function"
    },
    {
      "inputs": [
        {
          "internalType": "uint256",
          "name": "creditId",
          "type": "uint256"
        },
        {
          "internalType": "uint256",
          "name": "feeAmount",
          "type": "uint256"
        }
      ],
      "name": "requestAudit",
      "outputs": [],
      "stateMutability": "nonpayable",
      "type": "function"
    },
    {
      "inputs": [
        {
          "internalType": "uint256",
          "name": "creditId",
          "type": "uint256"
        },
        {
          "internalType": "uint256",
          "name": "price",
          "type": "uint256"
        }
      ],
      "name": "sellCredit",
      "outputs": [],
      "stateMutability": "nonpayable",
      "type": "function"
    }
  ],
  "bytecode": "0x60806040523480156200001157600080fd5b5060405162002039380380620020398339818101604052810190620000379190620000e8565b806000806101000a81548173ffffffffffffffffffffffffffffffffffffffff021916908373ffffffffffffffffffffffffffffffffffffffff160217905550506200011a565b600080fd5b600073ffffffffffffffffffffffffffffffffffffffff82169050919050565b6000620000b08262000083565b9050919050565b620000c281620000a3565b8114620000ce57600080fd5b50565b600081519050620000e281620000b7565b92915050565b6000602082840312156200010157620001006200007e565b5b60006200011184828501620000d1565b91505092915050565b611f0f806200012a6000396000f3fe608060405234801561001057600080fd5b506004361061010b5760003560e01c8063a35bcbef116100a2578063d48e638a11610071578063d48e638a146102a9578063d9548e53146102d9578063e757223014610309578063f2e5041814610339578063f5383175146103695761010b565b8063a35bcbef14610225578063bf81bf4314610241578063c41a360a1461025d578063ca8506921461028d5761010b565b80633047456f116100de5780633047456f1461019f5780636f9fb98a146101bb5780637211dde4146101d957806373d8624f146101f55761010b565b8063036a1c22146101105780631361a3b6146101495780631ada47ce146101655780631eff25ed14610183575b600080fd5b61012a6004803603810190610125919061155c565b610387565b6040516101409a99989796959493929190611629565b60405180910390f35b610163600480360381019061015e919061155c565b610442565b005b61016d610503565b60405161017a9190611724565b60405180910390f35b61019d6004803603810190610198919061173f565b610527565b005b6101b960048036038101906101b4919061173f565b610715565b005b6101c3610811565b6040516101d0919061177f565b60405180910390f35b6101f360048036038101906101ee919061155c565b6108b3565b005b61020f600480360381019061020a919061155c565b610c90565b60405161021c9190611858565b60405180910390f35b61023f600480360381019061023a91906118a6565b610d34565b005b61025b6004803603810190610256919061155c565b61110e565b005b6102776004803603810190610272919061155c565b6111da565b60405161028491906118e6565b60405180910390f35b6102a760048036038101906102a2919061173f565b61121a565b005b6102c360048036038101906102be919061155c565b61141f565b6040516102d091906118e6565b60405180910390f35b6102f360048036038101906102ee919061155c565b61145f565b6040516103009190611901565b60405180910390f35b610323600480360381019061031e919061155c565b61148c565b604051610330919061177f565b60405180910390f35b610353600480360381019061034e9190611948565b6114ac565b6040516103609190611901565b60405180910390f35b610371611517565b60405161037e919061177f565b60405180910390f35b60016020528060005260406000206000915090508060000154908060010160009054906101000a900473ffffffffffffffffffffffffffffffffffffffff16908060020160009054906101000a900473ffffffffffffffffffffffffffffffffffffffff16908060020160149054906101000a900460ff16908060030154908060040160009054906101000a900460ff16908060040160019054906101000a900460ff1690806005015490806006015490806007015490508a565b60006001600083815260200190815260200160002090508060020160009054906101000a900473ffffffffffffffffffffffffffffffffffffffff1673ffffffffffffffffffffffffffffffffffffffff163373ffffffffffffffffffffffffffffffffffffffff16146104e2576040517f8a715f9900000000000000000000000000000000000000000000000000000000815260040160405180910390fd5b60008160040160006101000a81548160ff0219169083151502179055505050565b60008054906101000a900473ffffffffffffffffffffffffffffffffffffffff1681565b60006001600084815260200190815260200160002060040160019054906101000a900460ff1660ff1614610587576040517f2acf5b7000000000000000000000000000000000000000000000000000000000815260040160405180910390fd5b6001600083815260200190815260200160002060000154655af3107a40006105af91906119b7565b8110156105e8576040517f93b11cab00000000000000000000000000000000000000000000000000000000815260040160405180910390fd5b60008054906101000a900473ffffffffffffffffffffffffffffffffffffffff1673ffffffffffffffffffffffffffffffffffffffff166323b872dd3330846040518463ffffffff1660e01b8152600401610645939291906119f9565b6020604051808303816000875af1158015610664573d6000803e3d6000fd5b505050506040513d601f19601f820116820180604052508101906106889190611a45565b6106c7576040517f08c379a00000000000000000000000000000000000000000000000000000000081526004016106be90611acf565b60405180910390fd5b600180600084815260200190815260200160002060040160016101000a81548160ff021916908360ff1602179055508060016000848152602001908152602001600020600601819055505050565b60006001600060025481526020019081526020016000209050828160000181905550338160010160006101000a81548173ffffffffffffffffffffffffffffffffffffffff021916908373ffffffffffffffffffffffffffffffffffffffff160217905550338160020160006101000a81548173ffffffffffffffffffffffffffffffffffffffff021916908373ffffffffffffffffffffffffffffffffffffffff160217905550818160030181905550600360026101f4856107d89190611b1e565b6107e291906119b7565b6107ec9190611b4f565b81600501819055506002600081548092919061080790611b83565b9190505550505050565b60008060009054906101000a900473ffffffffffffffffffffffffffffffffffffffff1673ffffffffffffffffffffffffffffffffffffffff166370a08231306040518263ffffffff1660e01b815260040161086d91906118e6565b602060405180830381865afa15801561088a573d6000803e3d6000fd5b505050506040513d601f19601f820116820180604052508101906108ae9190611be0565b905090565b60006001600083815260200190815260200160002090508060040160009054906101000a900460ff16610912576040517f648b466f00000000000000000000000000000000000000000000000000000000815260040160405180910390fd5b60008160030154905060008054906101000a900473ffffffffffffffffffffffffffffffffffffffff1673ffffffffffffffffffffffffffffffffffffffff166323b872dd3330846040518463ffffffff1660e01b8152600401610978939291906119f9565b6020604051808303816000875af1158015610997573d6000803e3d6000fd5b505050506040513d601f19601f820116820180604052508101906109bb9190611a45565b6109fa576040517f08c379a00000000000000000000000000000000000000000000000000000000081526004016109f190611c59565b60405180910390fd5b60006064600a83610a0b91906119b7565b610a159190611b1e565b905060008183610a259190611c79565b905060008054906101000a900473ffffffffffffffffffffffffffffffffffffffff1673ffffffffffffffffffffffffffffffffffffffff1663a9059cbb8560010160009054906101000a900473ffffffffffffffffffffffffffffffffffffffff16846040518363ffffffff1660e01b8152600401610aa6929190611cad565b6020604051808303816000875af1158015610ac5573d6000803e3d6000fd5b505050506040513d601f19601f82011682018060405250810190610ae99190611a45565b610b28576040517f08c379a0000000000000000000000000000000000000000000000000000000008152600401610b1f90611d22565b60405180910390fd5b60008054906101000a900473ffffffffffffffffffffffffffffffffffffffff1673ffffffffffffffffffffffffffffffffffffffff1663a9059cbb8560020160009054906101000a900473ffffffffffffffffffffffffffffffffffffffff16836040518363ffffffff1660e01b8152600401610ba7929190611cad565b6020604051808303816000875af1158015610bc6573d6000803e3d6000fd5b505050506040513d601f19601f82011682018060405250810190610bea9190611a45565b610c29576040517f08c379a0000000000000000000000000000000000000000000000000000000008152600401610c2090611d8e565b60405180910390fd5b338460020160006101000a81548173ffffffffffffffffffffffffffffffffffffffff021916908373ffffffffffffffffffffffffffffffffffffffff16021790555060008460040160006101000a81548160ff0219169083151502179055505050505050565b606060016000838152602001908152602001600020600801805480602002602001604051908101604052809291908181526020018280548015610d2857602002820191906000526020600020905b8160009054906101000a900473ffffffffffffffffffffffffffffffffffffffff1673ffffffffffffffffffffffffffffffffffffffff1681526020019060010190808311610cde575b50505050509050919050565b60006001600084815260200190815260200160002090508060010160009054906101000a900473ffffffffffffffffffffffffffffffffffffffff1673ffffffffffffffffffffffffffffffffffffffff163373ffffffffffffffffffffffffffffffffffffffff1603610dd4576040517fe53232aa00000000000000000000000000000000000000000000000000000000815260040160405180910390fd5b60018160040160019054906101000a900460ff1660ff1614610e22576040517f2fe529b200000000000000000000000000000000000000000000000000000000815260040160405180910390fd5b60005b8160080180549050811015610eec573373ffffffffffffffffffffffffffffffffffffffff16826008018281548110610e6157610e60611dae565b5b9060005260206000200160009054906101000a900473ffffffffffffffffffffffffffffffffffffffff1673ffffffffffffffffffffffffffffffffffffffff1603610ed9576040517f2fe529b200000000000000000000000000000000000000000000000000000000815260040160405180910390fd5b8080610ee490611b83565b915050610e25565b50818160090160003373ffffffffffffffffffffffffffffffffffffffff1673ffffffffffffffffffffffffffffffffffffffff16815260200190815260200160002060006101000a81548160ff02191690831515021790555080600801339080600181540180825580915050600190039060005260206000200160009091909190916101000a81548173ffffffffffffffffffffffffffffffffffffffff021916908373ffffffffffffffffffffffffffffffffffffffff1602179055508115610fd057806007016000815480929190610fc690611ddd565b9190505550610feb565b806007016000815480929190610fe590611e25565b91905055505b806005015481600801805490500361101c5760028160040160016101000a81548160ff021916908360ff1602179055505b60008054906101000a900473ffffffffffffffffffffffffffffffffffffffff1673ffffffffffffffffffffffffffffffffffffffff1663a9059cbb336003846006015461106a9190611b1e565b6040518363ffffffff1660e01b8152600401611087929190611cad565b6020604051808303816000875af11580156110a6573d6000803e3d6000fd5b505050506040513d601f19601f820116820180604052508101906110ca9190611a45565b611109576040517f08c379a000000000000000000000000000000000000000000000000000000000815260040161110090611eb9565b60405180910390fd5b505050565b6001600082815260200190815260200160002060010160009054906101000a900473ffffffffffffffffffffffffffffffffffffffff1673ffffffffffffffffffffffffffffffffffffffff163373ffffffffffffffffffffffffffffffffffffffff16146111a9576040517ffeeecc3400000000000000000000000000000000000000000000000000000000815260040160405180910390fd5b600180600083815260200190815260200160002060020160146101000a81548160ff02191690831515021790555050565b60006001600083815260200190815260200160002060020160009054906101000a900473ffffffffffffffffffffffffffffffffffffffff169050919050565b6000600160008481526020019081526020016000209050600073ffffffffffffffffffffffffffffffffffffffff168160020160009054906101000a900473ffffffffffffffffffffffffffffffffffffffff1673ffffffffffffffffffffffffffffffffffffffff16036112bb576040517f854f4ad100000000000000000000000000000000000000000000000000000000815260040160405180910390fd5b8060020160009054906101000a900473ffffffffffffffffffffffffffffffffffffffff1673ffffffffffffffffffffffffffffffffffffffff163373ffffffffffffffffffffffffffffffffffffffff1614611344576040517f4400708d00000000000000000000000000000000000000000000000000000000815260040160405180910390fd5b60026001600085815260200190815260200160002060040160019054906101000a900460ff1660ff16146113a4576040517f76eb7a6000000000000000000000000000000000000000000000000000000000815260040160405180910390fd5b60006001600085815260200190815260200160002060070154136113f4576040517f8be25c5800000000000000000000000000000000000000000000000000000000815260040160405180910390fd5b81816003018190555060018160040160006101000a81548160ff021916908315150217905550505050565b60006001600083815260200190815260200160002060010160009054906101000a900473ffffffffffffffffffffffffffffffffffffffff169050919050565b60006001600083815260200190815260200160002060020160149054906101000a900460ff169050919050565b600060016000838152602001908152602001600020600301549050919050565b60006001600084815260200190815260200160002060090160008373ffffffffffffffffffffffffffffffffffffffff1673ffffffffffffffffffffffffffffffffffffffff16815260200190815260200160002060009054906101000a900460ff16905092915050565b6000600254905090565b600080fd5b6000819050919050565b61153981611526565b811461154457600080fd5b50565b60008135905061155681611530565b92915050565b60006020828403121561157257611571611521565b5b600061158084828501611547565b91505092915050565b61159281611526565b82525050565b600073ffffffffffffffffffffffffffffffffffffffff82169050919050565b60006115c382611598565b9050919050565b6115d3816115b8565b82525050565b60008115159050919050565b6115ee816115d9565b82525050565b600060ff82169050919050565b61160a816115f4565b82525050565b6000819050919050565b61162381611610565b82525050565b60006101408201905061163f600083018d611589565b61164c602083018c6115ca565b611659604083018b6115ca565b611666606083018a6115e5565b6116736080830189611589565b61168060a08301886115e5565b61168d60c0830187611601565b61169a60e0830186611589565b6116a8610100830185611589565b6116b661012083018461161a565b9b9a5050505050505050505050565b6000819050919050565b60006116ea6116e56116e084611598565b6116c5565b611598565b9050919050565b60006116fc826116cf565b9050919050565b600061170e826116f1565b9050919050565b61171e81611703565b82525050565b60006020820190506117396000830184611715565b92915050565b6000806040838503121561175657611755611521565b5b600061176485828601611547565b925050602061177585828601611547565b9150509250929050565b60006020820190506117946000830184611589565b92915050565b600081519050919050565b600082825260208201905092915050565b6000819050602082019050919050565b6117cf816115b8565b82525050565b60006117e183836117c6565b60208301905092915050565b6000602082019050919050565b60006118058261179a565b61180f81856117a5565b935061181a836117b6565b8060005b8381101561184b57815161183288826117d5565b975061183d836117ed565b92505060018101905061181e565b5085935050505092915050565b6000602082019050818103600083015261187281846117fa565b905092915050565b611883816115d9565b811461188e57600080fd5b50565b6000813590506118a08161187a565b92915050565b600080604083850312156118bd576118bc611521565b5b60006118cb85828601611547565b92505060206118dc85828601611891565b9150509250929050565b60006020820190506118fb60008301846115ca565b92915050565b600060208201905061191660008301846115e5565b92915050565b611925816115b8565b811461193057600080fd5b50565b6000813590506119428161191c565b92915050565b6000806040838503121561195f5761195e611521565b5b600061196d85828601611547565b925050602061197e85828601611933565b9150509250929050565b7f4e487b7100000000000000000000000000000000000000000000000000000000600052601160045260246000fd5b60006119c282611526565b91506119cd83611526565b92508282026119db81611526565b915082820484148315176119f2576119f1611988565b5b5092915050565b6000606082019050611a0e60008301866115ca565b611a1b60208301856115ca565b611a286040830184611589565b949350505050565b600081519050611a3f8161187a565b92915050565b600060208284031215611a5b57611a5a611521565b5b6000611a6984828501611a30565b91505092915050565b600082825260208201905092915050565b7f466565207472616e73666572206661696c656400000000000000000000000000600082015250565b6000611ab9601383611a72565b9150611ac482611a83565b602082019050919050565b60006020820190508181036000830152611ae881611aac565b9050919050565b7f4e487b7100000000000000000000000000000000000000000000000000000000600052601260045260246000fd5b6000611b2982611526565b9150611b3483611526565b925082611b4457611b43611aef565b5b828204905092915050565b6000611b5a82611526565b9150611b6583611526565b9250828201905080821115611b7d57611b7c611988565b5b92915050565b6000611b8e82611526565b91507fffffffffffffffffffffffffffffffffffffffffffffffffffffffffffffffff8203611bc057611bbf611988565b5b600182019050919050565b600081519050611bda81611530565b92915050565b600060208284031215611bf657611bf5611521565b5b6000611c0484828501611bcb565b91505092915050565b7f546f6b656e207472616e73666572206661696c65640000000000000000000000600082015250565b6000611c43601583611a72565b9150611c4e82611c0d565b602082019050919050565b60006020820190508181036000830152611c7281611c36565b9050919050565b6000611c8482611526565b9150611c8f83611526565b9250828203905081811115611ca757611ca6611988565b5b92915050565b6000604082019050611cc260008301856115ca565b611ccf6020830184611589565b9392505050565b7f43726561746f72207061796d656e74206661696c656400000000000000000000600082015250565b6000611d0c601683611a72565b9150611d1782611cd6565b602082019050919050565b60006020820190508181036000830152611d3b81611cff565b9050919050565b7f4f776e6572207061796d656e74206661696c6564000000000000000000000000600082015250565b6000611d78601483611a72565b9150611d8382611d42565b602082019050919050565b60006020820190508181036000830152611da781611d6b565b9050919050565b7f4e487b7100000000000000000000000000000000000000000000000000000000600052603260045260246000fd5b6000611de882611610565b91507f7fffffffffffffffffffffffffffffffffffffffffffffffffffffffffffffff8203611e1a57611e19611988565b5b600182019050919050565b6000611e3082611610565b91507f80000000000000000000000000000000000000000000000000000000000000008203611e6257611e61611988565b5b600182039050919050565b7f417564697420726577617264206661696c656400000000000000000000000000600082015250565b6000611ea3601383611a72565b9150611eae82611e6d565b602082019050919050565b60006020820190508181036000830152611ed281611e96565b905091905056fea2646970667358221220a7636287ba3b425b7f6bd997736fa96028aac5037a232fa7db8e334a09b2b11664736f6c63430008140033",
  "linkReferences": {},
  "deployedLinkReferences": {}
}